{
  "contractName": "Store",
  "abi": [
    {
      "constant": true,
      "inputs": [],
      "name": "owner",
      "outputs": [
        {
          "name": "",
          "type": "address"
        }
      ],
      "payable": false,
      "stateMutability": "view",
      "type": "function"
    },
    {
      "anonymous": false,
      "inputs": [
        {
          "indexed": false,
          "name": "_productOwner",
          "type": "address"
        },
        {
          "indexed": false,
          "name": "_id",
          "type": "uint256"
        }
      ],
      "name": "NewProductAdded",
      "type": "event"
    },
    {
      "anonymous": false,
      "inputs": [
        {
          "indexed": false,
          "name": "_productOwner",
          "type": "address"
        },
        {
          "indexed": false,
          "name": "_price",
          "type": "uint256"
        },
        {
          "indexed": false,
          "name": "_time",
          "type": "uint256"
        }
      ],
      "name": "ProductBuyed",
      "type": "event"
    },
    {
      "anonymous": false,
      "inputs": [
        {
          "indexed": false,
          "name": "_productOwner",
          "type": "address"
        },
        {
          "indexed": false,
          "name": "_id",
          "type": "uint256"
        }
      ],
      "name": "ProductEdited",
      "type": "event"
    },
    {
      "anonymous": false,
      "inputs": [
        {
          "indexed": false,
          "name": "_participant",
          "type": "address"
        }
      ],
      "name": "ApplyedForTeam",
      "type": "event"
    },
    {
      "anonymous": false,
      "inputs": [
        {
          "indexed": false,
          "name": "_teamMember",
          "type": "address"
        }
      ],
      "name": "AcceptedInTeam",
      "type": "event"
    },
    {
      "anonymous": false,
      "inputs": [
        {
          "indexed": false,
          "name": "withdrawer",
          "type": "address"
        },
        {
          "indexed": false,
          "name": "amount",
          "type": "uint256"
        },
        {
          "indexed": false,
          "name": "time",
          "type": "uint256"
        }
      ],
      "name": "Withdrawed",
      "type": "event"
    },
    {
      "constant": false,
      "inputs": [
        {
          "name": "_productOwner",
          "type": "address"
        },
        {
          "name": "_allProducts",
          "type": "string"
        },
        {
          "name": "_price",
          "type": "uint256"
        },
        {
          "name": "_quantity",
          "type": "uint256"
        },
        {
          "name": "_singleProduct",
          "type": "string"
        },
        {
          "name": "_userProducts",
          "type": "string"
        }
      ],
      "name": "addProduct",
      "outputs": [],
      "payable": false,
      "stateMutability": "nonpayable",
      "type": "function"
    },
    {
      "constant": false,
      "inputs": [
        {
          "name": "_productOwner",
          "type": "address"
        },
        {
          "name": "_id",
          "type": "uint256"
        },
        {
          "name": "_quantity",
          "type": "uint256"
        },
        {
          "name": "_singleProduct",
          "type": "string"
        },
        {
          "name": "_allProducts",
          "type": "string"
        },
        {
          "name": "_userProducts",
          "type": "string"
        }
      ],
      "name": "buyProduct",
      "outputs": [],
      "payable": true,
      "stateMutability": "payable",
      "type": "function"
    },
    {
      "constant": false,
      "inputs": [
        {
          "name": "_id",
          "type": "uint256"
        },
        {
          "name": "_allProducts",
          "type": "string"
        },
        {
          "name": "_price",
          "type": "uint256"
        },
        {
          "name": "_quantity",
          "type": "uint256"
        },
        {
          "name": "_singleProduct",
          "type": "string"
        },
        {
          "name": "_userProducts",
          "type": "string"
        }
      ],
      "name": "setEditedProduct",
      "outputs": [],
      "payable": false,
      "stateMutability": "nonpayable",
      "type": "function"
    },
    {
      "constant": true,
      "inputs": [
        {
          "name": "_productOwner",
          "type": "address"
        }
      ],
      "name": "getProductsForMember",
      "outputs": [
        {
          "name": "",
          "type": "string"
        }
      ],
      "payable": false,
      "stateMutability": "view",
      "type": "function"
    },
    {
      "constant": true,
      "inputs": [
        {
          "name": "_productOwner",
          "type": "address"
        },
        {
          "name": "_id",
          "type": "uint256"
        }
      ],
      "name": "getDetailsOfProduct",
      "outputs": [
        {
          "name": "",
          "type": "string"
        }
      ],
      "payable": false,
      "stateMutability": "view",
      "type": "function"
    },
    {
      "constant": true,
      "inputs": [],
      "name": "allProducts",
      "outputs": [
        {
          "name": "",
          "type": "string"
        }
      ],
      "payable": false,
      "stateMutability": "view",
      "type": "function"
    },
    {
      "constant": false,
      "inputs": [
        {
          "name": "_listOfMembersToJoin",
          "type": "string"
        }
      ],
      "name": "applyForTeam",
      "outputs": [],
      "payable": false,
      "stateMutability": "nonpayable",
      "type": "function"
    },
    {
      "constant": false,
      "inputs": [
        {
          "name": "_member",
          "type": "address"
        },
        {
          "name": "_allTeamMembers",
          "type": "string"
        },
        {
          "name": "_listOfMembersToJoin",
          "type": "string"
        }
      ],
      "name": "acceptMember",
      "outputs": [],
      "payable": false,
      "stateMutability": "nonpayable",
      "type": "function"
    },
    {
      "constant": true,
      "inputs": [],
      "name": "allTeamMembers",
      "outputs": [
        {
          "name": "",
          "type": "string"
        }
      ],
      "payable": false,
      "stateMutability": "view",
      "type": "function"
    },
    {
      "constant": true,
      "inputs": [],
      "name": "listOfMembersToJoin",
      "outputs": [
        {
          "name": "",
          "type": "string"
        }
      ],
      "payable": false,
      "stateMutability": "view",
      "type": "function"
    },
    {
      "constant": true,
      "inputs": [],
      "name": "memberData",
      "outputs": [
        {
          "name": "",
          "type": "uint256"
        },
        {
          "name": "",
          "type": "uint256"
        }
      ],
      "payable": false,
      "stateMutability": "view",
      "type": "function"
    },
    {
      "constant": true,
      "inputs": [],
      "name": "myBalance",
      "outputs": [
        {
          "name": "",
          "type": "uint256"
        }
      ],
      "payable": false,
      "stateMutability": "view",
      "type": "function"
    },
    {
      "constant": true,
      "inputs": [],
      "name": "checkSellsOfContract",
      "outputs": [
        {
          "name": "",
          "type": "uint256"
        },
        {
          "name": "",
          "type": "uint256"
        },
        {
          "name": "",
          "type": "uint256"
        }
      ],
      "payable": false,
      "stateMutability": "view",
      "type": "function"
    },
    {
      "constant": false,
      "inputs": [
        {
          "name": "amount",
          "type": "uint256"
        }
      ],
      "name": "withdraw",
      "outputs": [],
      "payable": true,
      "stateMutability": "payable",
      "type": "function"
    }
  ],
  "bytecode": "0x6080604052336000806101000a81548173ffffffffffffffffffffffffffffffffffffffff021916908373ffffffffffffffffffffffffffffffffffffffff160217905550611d14806100536000396000f3fe608060405260043610610105576000357c01000000000000000000000000000000000000000000000000000000009004806391295241116100a7578063c49d3b9f11610076578063c49d3b9f1461096c578063c81caae71461099e578063c9116b6914610a99578063d8ff06c814610ac457610105565b80639129524114610628578063946daa90146106b8578063a9ece3d91461081c578063aea821de146108a257610105565b80634b591460116100e35780634b5914601461025857806361917cbc1461032c5780637526c4a9146104835780638da5cb5b146105d157610105565b8063051a2fe31461010a57806321acfdaa1461019a5780632e1a7d4d1461022a575b600080fd5b34801561011657600080fd5b5061011f610afd565b6040518080602001828103825283818151815260200191508051906020019080838360005b8381101561015f578082015181840152602081019050610144565b50505050905090810190601f16801561018c5780820380516001836020036101000a031916815260200191505b509250505060405180910390f35b3480156101a657600080fd5b506101af610ba2565b6040518080602001828103825283818151815260200191508051906020019080838360005b838110156101ef5780820151818401526020810190506101d4565b50505050905090810190601f16801561021c5780820380516001836020036101000a031916815260200191505b509250505060405180910390f35b6102566004803603602081101561024057600080fd5b8101908080359060200190929190505050610c46565b005b34801561026457600080fd5b506102b16004803603604081101561027b57600080fd5b81019080803573ffffffffffffffffffffffffffffffffffffffff16906020019092919080359060200190929190505050610dd9565b6040518080602001828103825283818151815260200191508051906020019080838360005b838110156102f15780820151818401526020810190506102d6565b50505050905090810190601f16801561031e5780820380516001836020036101000a031916815260200191505b509250505060405180910390f35b610481600480360360c081101561034257600080fd5b81019080803573ffffffffffffffffffffffffffffffffffffffff16906020019092919080359060200190929190803590602001909291908035906020019064010000000081111561039357600080fd5b8201836020820111156103a557600080fd5b803590602001918460018302840111640100000000831117156103c757600080fd5b9091929391929390803590602001906401000000008111156103e857600080fd5b8201836020820111156103fa57600080fd5b8035906020019184600183028401116401000000008311171561041c57600080fd5b90919293919293908035906020019064010000000081111561043d57600080fd5b82018360208201111561044f57600080fd5b8035906020019184600183028401116401000000008311171561047157600080fd5b9091929391929390505050610f1e565b005b34801561048f57600080fd5b506105cf600480360360c08110156104a657600080fd5b8101908080359060200190929190803590602001906401000000008111156104cd57600080fd5b8201836020820111156104df57600080fd5b8035906020019184600183028401116401000000008311171561050157600080fd5b909192939192939080359060200190929190803590602001909291908035906020019064010000000081111561053657600080fd5b82018360208201111561054857600080fd5b8035906020019184600183028401116401000000008311171561056a57600080fd5b90919293919293908035906020019064010000000081111561058b57600080fd5b82018360208201111561059d57600080fd5b803590602001918460018302840111640100000000831117156105bf57600080fd5b9091929391929390505050611155565b005b3480156105dd57600080fd5b506105e6611339565b604051808273ffffffffffffffffffffffffffffffffffffffff1673ffffffffffffffffffffffffffffffffffffffff16815260200191505060405180910390f35b34801561063457600080fd5b5061063d61135e565b6040518080602001828103825283818151815260200191508051906020019080838360005b8381101561067d578082015181840152602081019050610662565b50505050905090810190601f1680156106aa5780820380516001836020036101000a031916815260200191505b509250505060405180910390f35b3480156106c457600080fd5b5061081a600480360360c08110156106db57600080fd5b81019080803573ffffffffffffffffffffffffffffffffffffffff1690602001909291908035906020019064010000000081111561071857600080fd5b82018360208201111561072a57600080fd5b8035906020019184600183028401116401000000008311171561074c57600080fd5b909192939192939080359060200190929190803590602001909291908035906020019064010000000081111561078157600080fd5b82018360208201111561079357600080fd5b803590602001918460018302840111640100000000831117156107b557600080fd5b9091929391929390803590602001906401000000008111156107d657600080fd5b8201836020820111156107e857600080fd5b8035906020019184600183028401116401000000008311171561080a57600080fd5b9091929391929390505050611403565b005b34801561082857600080fd5b506108a06004803603602081101561083f57600080fd5b810190808035906020019064010000000081111561085c57600080fd5b82018360208201111561086e57600080fd5b8035906020019184600183028401116401000000008311171561089057600080fd5b9091929391929390505050611641565b005b3480156108ae57600080fd5b506108f1600480360360208110156108c557600080fd5b81019080803573ffffffffffffffffffffffffffffffffffffffff169060200190929190505050611762565b6040518080602001828103825283818151815260200191508051906020019080838360005b83811015610931578082015181840152602081019050610916565b50505050905090810190601f16801561095e5780820380516001836020036101000a031916815260200191505b509250505060405180910390f35b34801561097857600080fd5b5061098161189e565b604051808381526020018281526020019250505060405180910390f35b3480156109aa57600080fd5b50610a97600480360360608110156109c157600080fd5b81019080803573ffffffffffffffffffffffffffffffffffffffff169060200190929190803590602001906401000000008111156109fe57600080fd5b820183602082011115610a1057600080fd5b80359060200191846001830284011164010000000083111715610a3257600080fd5b909192939192939080359060200190640100000000811115610a5357600080fd5b820183602082011115610a6557600080fd5b80359060200191846001830284011164010000000083111715610a8757600080fd5b90919293919293905050506118b5565b005b348015610aa557600080fd5b50610aae611a41565b6040518082815260200191505060405180910390f35b348015610ad057600080fd5b50610ad9611a88565b60405180848152602001838152602001828152602001935050505060405180910390f35b606060016000018054600181600116156101000203166002900480601f016020809104026020016040519081016040528092919081815260200182805460018160011615610100020316600290048015610b985780601f10610b6d57610100808354040283529160200191610b98565b820191906000526020600020905b815481529060010190602001808311610b7b57829003601f168201915b5050505050905090565b6060600180018054600181600116156101000203166002900480601f016020809104026020016040519081016040528092919081815260200182805460018160011615610100020316600290048015610c3c5780601f10610c1157610100808354040283529160200191610c3c565b820191906000526020600020905b815481529060010190602001808311610c1f57829003601f168201915b5050505050905090565b80610c5081611b19565b610cc2576040517f08c379a00000000000000000000000000000000000000000000000000000000081526004018080602001828103825260108152602001807f4e6f7420656e6f7567682066756e64730000000000000000000000000000000081525060200191505060405180910390fd5b6000339050610d1983600b60008473ffffffffffffffffffffffffffffffffffffffff1673ffffffffffffffffffffffffffffffffffffffff16815260200190815260200160002054611b6590919063ffffffff16565b508073ffffffffffffffffffffffffffffffffffffffff166108fc849081150290604051600060405180830381858888f19350505050158015610d60573d6000803e3d6000fd5b507f4cdcd27ae88503b2d4d3034a348b78aec00eca6369f48e5002ca3df8686b9b3e818442604051808473ffffffffffffffffffffffffffffffffffffffff1673ffffffffffffffffffffffffffffffffffffffff168152602001838152602001828152602001935050505060405180910390a1505050565b6060600673__ProductManagmentLib___________________631b2ece40909185856040518463ffffffff167c0100000000000000000000000000000000000000000000000000000000028152600401808481526020018373ffffffffffffffffffffffffffffffffffffffff1673ffffffffffffffffffffffffffffffffffffffff168152602001828152602001935050505060006040518083038186803b158015610e8557600080fd5b505af4158015610e99573d6000803e3d6000fd5b505050506040513d6000823e3d601f19601f820116820180604052506020811015610ec357600080fd5b810190808051640100000000811115610edb57600080fd5b82810190506020810184811115610ef157600080fd5b8151856001820283011164010000000082111715610f0e57600080fd5b5050929190505050905092915050565b600034905080600b60008c73ffffffffffffffffffffffffffffffffffffffff1673ffffffffffffffffffffffffffffffffffffffff16815260200190815260200160002060008282540192505081905550600673__ProductManagmentLib___________________634af6e28590918c8c8c8c8c8c8c8c8c6040518b63ffffffff167c0100000000000000000000000000000000000000000000000000000000028152600401808b81526020018a73ffffffffffffffffffffffffffffffffffffffff1673ffffffffffffffffffffffffffffffffffffffff16815260200189815260200188815260200180602001806020018060200184810384528a8a82818152602001925080828437600081840152601f19601f8201169050808301925050508481038352888882818152602001925080828437600081840152601f19601f8201169050808301925050508481038252868682818152602001925080828437600081840152601f19601f8201169050808301925050509d505050505050505050505050505060006040518083038186803b1580156110be57600080fd5b505af41580156110d2573d6000803e3d6000fd5b505050507f3ff76cffe1e26aa63bf613968cdccbf24670e9a81501942ef99750a047d975228a8242604051808473ffffffffffffffffffffffffffffffffffffffff1673ffffffffffffffffffffffffffffffffffffffff168152602001838152602001828152602001935050505060405180910390a150505050505050505050565b600673__ProductManagmentLib___________________6362265f939091338c8c8c8c8c8c8c8c8c6040518c63ffffffff167c0100000000000000000000000000000000000000000000000000000000028152600401808c81526020018b73ffffffffffffffffffffffffffffffffffffffff1673ffffffffffffffffffffffffffffffffffffffff1681526020018a815260200180602001888152602001878152602001806020018060200184810384528c8c82818152602001925080828437600081840152601f19601f8201169050808301925050508481038352888882818152602001925080828437600081840152601f19601f8201169050808301925050508481038252868682818152602001925080828437600081840152601f19601f8201169050808301925050509e50505050505050505050505050505060006040518083038186803b1580156112ab57600080fd5b505af41580156112bf573d6000803e3d6000fd5b505050507f345ab5cdfc106b643ec308859d4cbb4e2a39068b227ce050acf5581512c1b58e338a604051808373ffffffffffffffffffffffffffffffffffffffff1673ffffffffffffffffffffffffffffffffffffffff1681526020018281526020019250505060405180910390a1505050505050505050565b6000809054906101000a900473ffffffffffffffffffffffffffffffffffffffff1681565b606060066000018054600181600116156101000203166002900480601f0160208091040260200160405190810160405280929190818152602001828054600181600116156101000203166002900480156113f95780601f106113ce576101008083540402835291602001916113f9565b820191906000526020600020905b8154815290600101906020018083116113dc57829003601f168201915b5050505050905090565b61140b611b85565b611460576040517f08c379a0000000000000000000000000000000000000000000000000000000008152600401808060200182810382526030815260200180611c926030913960400191505060405180910390fd5b600673__ProductManagmentLib___________________63fcf5c79f90918b8b8b8b8b8b8b8b8b6040518b63ffffffff167c0100000000000000000000000000000000000000000000000000000000028152600401808b81526020018a73ffffffffffffffffffffffffffffffffffffffff1673ffffffffffffffffffffffffffffffffffffffff16815260200180602001888152602001878152602001806020018060200184810384528c8c82818152602001925080828437600081840152601f19601f8201169050808301925050508481038352888882818152602001925080828437600081840152601f19601f8201169050808301925050508481038252868682818152602001925080828437600081840152601f19601f8201169050808301925050509d505050505050505050505050505060006040518083038186803b1580156115ae57600080fd5b505af41580156115c2573d6000803e3d6000fd5b505050507f04b4be49ba299b0f6e7343b15518ac519206640953cfbeff161c75c19b1436c689600660020154604051808373ffffffffffffffffffffffffffffffffffffffff1673ffffffffffffffffffffffffffffffffffffffff1681526020018281526020019250505060405180910390a1505050505050505050565b600173__TeamManagmentLib______________________63969a1e8f909184846040518463ffffffff167c010000000000000000000000000000000000000000000000000000000002815260040180848152602001806020018281038252848482818152602001925080828437600081840152601f19601f82011690508083019250505094505050505060006040518083038186803b1580156116e357600080fd5b505af41580156116f7573d6000803e3d6000fd5b505050507f453b6a85e60e4a8816161ae1eec418c3e716fbfa4286bc548bea21665527668e33604051808273ffffffffffffffffffffffffffffffffffffffff1673ffffffffffffffffffffffffffffffffffffffff16815260200191505060405180910390a15050565b6060600673__ProductManagmentLib___________________63436c50e59091846040518363ffffffff167c0100000000000000000000000000000000000000000000000000000000028152600401808381526020018273ffffffffffffffffffffffffffffffffffffffff1673ffffffffffffffffffffffffffffffffffffffff1681526020019250505060006040518083038186803b15801561180657600080fd5b505af415801561181a573d6000803e3d6000fd5b505050506040513d6000823e3d601f19601f82011682018060405250602081101561184457600080fd5b81019080805164010000000081111561185c57600080fd5b8281019050602081018481111561187257600080fd5b815185600182028301116401000000008211171561188f57600080fd5b50509291905050509050919050565b600080600160020154600160030154915091509091565b600173__TeamManagmentLib______________________63cae81bb3909187878787876040518763ffffffff167c0100000000000000000000000000000000000000000000000000000000028152600401808781526020018673ffffffffffffffffffffffffffffffffffffffff1673ffffffffffffffffffffffffffffffffffffffff16815260200180602001806020018381038352878782818152602001925080828437600081840152601f19601f8201169050808301925050508381038252858582818152602001925080828437600081840152601f19601f8201169050808301925050509850505050505050505060006040518083038186803b1580156119bf57600080fd5b505af41580156119d3573d6000803e3d6000fd5b505050507ffb9427262579469e255ccbe8738cef787c9026aea0bd5097ae99d03502dbfa4433604051808273ffffffffffffffffffffffffffffffffffffffff1673ffffffffffffffffffffffffffffffffffffffff16815260200191505060405180910390a15050505050565b6000600b60003373ffffffffffffffffffffffffffffffffffffffff1673ffffffffffffffffffffffffffffffffffffffff16815260200190815260200160002054905090565b6000806000611a95611c3a565b611aea576040517f08c379a0000000000000000000000000000000000000000000000000000000008152600401808060200182810382526027815260200180611cc26027913960400191505060405180910390fd5b3073ffffffffffffffffffffffffffffffffffffffff1631600660020154600660010154925092509250909192565b6000600b60003373ffffffffffffffffffffffffffffffffffffffff1673ffffffffffffffffffffffffffffffffffffffff168152602001908152602001600020548211159050919050565b600082821115611b7457600080fd5b600082840390508091505092915050565b600060011515600160040160003373ffffffffffffffffffffffffffffffffffffffff1673ffffffffffffffffffffffffffffffffffffffff16815260200190815260200160002060009054906101000a900460ff1615151480611c3557506000809054906101000a900473ffffffffffffffffffffffffffffffffffffffff1673ffffffffffffffffffffffffffffffffffffffff163373ffffffffffffffffffffffffffffffffffffffff16145b905090565b60003373ffffffffffffffffffffffffffffffffffffffff166000809054906101000a900473ffffffffffffffffffffffffffffffffffffffff1673ffffffffffffffffffffffffffffffffffffffff161490509056fe596f75206d7573742062652070617274206f6620746865207465616d20746f20706f7374206e65772070726f647563744f6e6c79206f776e6572206861732061636365737320746f2074686973206f7065726174696f6ea165627a7a72305820e5209632cd6e4149e369480a49c03d0fdfa7d00b09681596bc43af135c74fd480029",
  "source": "pragma solidity 0.5.6;\r\nimport \"./TeamManagmentLib.sol\";\r\nimport \"./ProductManagmentLib.sol\";\r\nimport \"./SafeMathLib.sol\";\r\nimport \"./Ownable.sol\";\r\n\r\n\r\ncontract Store is Ownable {\r\n    \r\n    // Libraries\r\n    using TeamManagmentLib for TeamManagmentLib.Metadata;\r\n    using ProductManagmentLib for ProductManagmentLib.Metadata;\r\n    using SafeMathLib for uint;\r\n\r\n    // State\r\n    TeamManagmentLib.Metadata teamMetadata;\r\n    ProductManagmentLib.Metadata productMetadata;\r\n    mapping(address => uint) balanceOf;\r\n    \r\n    // Events\r\n    event NewProductAdded(address _productOwner, uint _id);\r\n    event ProductBuyed(address _productOwner, uint _price, uint _time);\r\n    event ProductEdited(address _productOwner, uint _id);\r\n    event ApplyedForTeam(address _participant);\r\n    event AcceptedInTeam(address _teamMember);\r\n    event Withdrawed(address withdrawer, uint amount, uint time);\r\n    \r\n    // Modifiers\r\n\r\n    modifier onlyIfIsPartOfTheTeam() {\r\n        require(_onlyIfIsPartOfTheTeam(), 'You must be part of the team to post new product');\r\n        _;\r\n    }\r\n\r\n    modifier onlyIfHasEnough(uint amount) {\r\n        require(_validateWithdraw(amount), 'Not enough funds');\r\n        _;\r\n    }\r\n\r\n    // Logic\r\n    function addProduct(address _productOwner, string calldata _allProducts, uint _price, uint _quantity, string calldata _singleProduct, string calldata _userProducts) external onlyIfIsPartOfTheTeam {\r\n        productMetadata.addProduct(_productOwner, _allProducts, _price, _quantity, _singleProduct, _userProducts);\r\n        emit NewProductAdded(_productOwner, productMetadata.totalSells);\r\n    }\r\n    \r\n    function buyProduct(address _productOwner, uint _id, uint _quantity, string calldata _singleProduct, string calldata _allProducts, string calldata _userProducts) external payable {\r\n        uint _priceFromBuyer = msg.value;\r\n        balanceOf[_productOwner] += _priceFromBuyer;\r\n        productMetadata.buyProduct(_productOwner, _id, _quantity, _singleProduct, _allProducts, _userProducts);\r\n        emit ProductBuyed(_productOwner, _priceFromBuyer, now);\r\n    }\r\n    \r\n    function setEditedProduct(uint _id, string calldata _allProducts, uint _price, uint _quantity, string calldata _singleProduct, string calldata _userProducts) external {\r\n        productMetadata.setEditedProduct(msg.sender, _id, _allProducts, _price, _quantity, _singleProduct, _userProducts);\r\n        emit ProductEdited(msg.sender, _id);\r\n    }\r\n    \r\n    function getProductsForMember(address _productOwner) external view returns(string memory) {\r\n        return productMetadata.getProductsForMember(_productOwner);\r\n    }\r\n    \r\n    function getDetailsOfProduct(address _productOwner, uint _id) external view returns(string memory) {\r\n        return productMetadata.getDetailsOfProduct(_productOwner, _id);\r\n    }\r\n    \r\n    function allProducts() external view returns(string memory) {\r\n        return productMetadata.allProducts;\r\n    }\r\n    \r\n    function applyForTeam(string calldata _listOfMembersToJoin) external {\r\n        teamMetadata.applyForTeam(_listOfMembersToJoin);\r\n        emit ApplyedForTeam(msg.sender);\r\n    }\r\n    \r\n    function acceptMember(address _member, string calldata _allTeamMembers, string calldata _listOfMembersToJoin) external {\r\n        teamMetadata.acceptMember(_member, _allTeamMembers, _listOfMembersToJoin);\r\n        emit AcceptedInTeam(msg.sender);\r\n    }\r\n    \r\n    function allTeamMembers() external view returns(string memory)  {\r\n        return teamMetadata.allTeamMembers;\r\n    }\r\n    \r\n    function listOfMembersToJoin() external  view returns(string memory)  {\r\n        return teamMetadata.listOfMembersToJoin;\r\n    }\r\n    \r\n    function memberData() external view returns(uint, uint) {\r\n        return(teamMetadata.pendingToJoin, teamMetadata.teamMembers);\r\n    }\r\n\r\n    function myBalance() public view returns(uint) {\r\n        return balanceOf[msg.sender];\r\n    }\r\n    \r\n    function checkSellsOfContract() public view onlyIfOwner returns(uint, uint, uint)  {\r\n        return (address(this).balance, productMetadata.totalSells, productMetadata.totalProducts);\r\n    }\r\n\r\n    function withdraw(uint amount) external payable onlyIfHasEnough(amount) {\r\n        address payable sender = msg.sender;\r\n        balanceOf[sender].sub(amount);\r\n        sender.transfer(amount);\r\n        emit Withdrawed(sender, amount, now);\r\n    }\r\n\r\n    // Modifier helpers\r\n    function _validateWithdraw(uint amount) private view returns(bool) {\r\n        return amount <= balanceOf[msg.sender];\r\n    }\r\n    \r\n    function _onlyIfIsPartOfTheTeam() private view returns(bool) {\r\n        return teamMetadata.isMemberOf[msg.sender] == true || msg.sender == owner;\r\n    }\r\n}",
  "sourcePath": "C:/Users/earth/Desktop/Project/DAPP/contracts/Store.sol",
  "compiler": {
    "name": "solc",
    "version": "0.5.6+commit.b259423e.Emscripten.clang"
  },
  "schemaVersion": "3.0.3",
  "updatedAt": "2019-04-13T15:20:35.275Z",
  "devdoc": {
    "methods": {}
  },
  "userdoc": {
    "methods": {}
  }
}